{
  "contractName": "Betting",
  "abi": [
    {
      "constant": true,
      "inputs": [
        {
          "name": "",
          "type": "uint256"
        }
      ],
      "name": "iterableBets",
      "outputs": [
        {
          "name": "",
          "type": "uint256"
        }
      ],
      "payable": false,
      "stateMutability": "view",
      "type": "function"
    },
    {
      "constant": true,
      "inputs": [
        {
          "name": "",
          "type": "uint256"
        }
      ],
      "name": "bet",
      "outputs": [
        {
          "name": "matchId",
          "type": "uint256"
        },
        {
          "name": "betId",
          "type": "uint256"
        },
        {
          "name": "matchStatus",
          "type": "uint256"
        },
        {
          "name": "betStatus",
          "type": "uint256"
        },
        {
          "name": "amount",
          "type": "uint256"
        },
        {
          "name": "playerA",
          "type": "address"
        },
        {
          "name": "playerB",
          "type": "address"
        },
        {
          "name": "active",
          "type": "bool"
        }
      ],
      "payable": false,
      "stateMutability": "view",
      "type": "function"
    },
    {
      "constant": true,
      "inputs": [
        {
          "name": "",
          "type": "bytes32"
        }
      ],
      "name": "oracleRequests",
      "outputs": [
        {
          "name": "",
          "type": "uint256"
        }
      ],
      "payable": false,
      "stateMutability": "view",
      "type": "function"
    },
    {
      "constant": true,
      "inputs": [],
      "name": "betCount",
      "outputs": [
        {
          "name": "",
          "type": "uint256"
        }
      ],
      "payable": false,
      "stateMutability": "view",
      "type": "function"
    },
    {
      "constant": false,
      "inputs": [
        {
          "name": "_betId",
          "type": "uint256"
        },
        {
          "name": "_teamSelected",
          "type": "uint256"
        },
        {
          "name": "_matchId",
          "type": "uint256"
        }
      ],
      "name": "addBet",
      "outputs": [],
      "payable": true,
      "stateMutability": "payable",
      "type": "function"
    },
    {
      "constant": false,
      "inputs": [
        {
          "name": "_betId",
          "type": "uint256"
        },
        {
          "name": "_teamSelected",
          "type": "uint256"
        }
      ],
      "name": "confirmBet",
      "outputs": [],
      "payable": true,
      "stateMutability": "payable",
      "type": "function"
    }
  ],
  "bytecode": "0x608060405234801561001057600080fd5b506108af806100206000396000f300608060405260043610610078576000357c0100000000000000000000000000000000000000000000000000000000900463ffffffff168063067073d61461007d5780635dd658c6146100b15780637365870b146100f2578063903a65d9146101c0578063a40afcf7146101ea578063cf0944971461022f575b600080fd5b6100af60048036038101908080359060200190929190803590602001909291908035906020019092919050505061025a565b005b3480156100bd57600080fd5b506100dc60048036038101908080359060200190929190505050610418565b6040518082815260200191505060405180910390f35b3480156100fe57600080fd5b5061011d6004803603810190808035906020019092919050505061043b565b604051808981526020018881526020018781526020018681526020018581526020018473ffffffffffffffffffffffffffffffffffffffff1673ffffffffffffffffffffffffffffffffffffffff1681526020018373ffffffffffffffffffffffffffffffffffffffff1673ffffffffffffffffffffffffffffffffffffffff168152602001821515151581526020019850505050505050505060405180910390f35b6101e860048036038101908080359060200190929190803590602001909291905050506104d0565b005b3480156101f657600080fd5b506102196004803603810190808035600019169060200190929190505050610849565b6040518082815260200191505060405180910390f35b34801561023b57600080fd5b50610244610861565b6040518082815260200191505060405180910390f35b600080600085815260200190815260200160002090508060070160149054906101000a900460ff161515156102f7576040517f08c379a00000000000000000000000000000000000000000000000000000000081526004018080602001828103825260148152602001807f426574496420416c72656164792045786973747300000000000000000000000081525060200191505060405180910390fd5b838160010181905550818160000181905550338160060160006101000a81548173ffffffffffffffffffffffffffffffffffffffff021916908373ffffffffffffffffffffffffffffffffffffffff16021790555060008160030181905550348160040181905550828160050160003373ffffffffffffffffffffffffffffffffffffffff1673ffffffffffffffffffffffffffffffffffffffff168152602001908152602001600020600001819055506001816003018190555060018160070160146101000a81548160ff0219169083151502179055506103e5600160035461086790919063ffffffff16565b50600284908060018154018082558091505090600182039060005260206000200160009091929091909150555050505050565b60028181548110151561042757fe5b906000526020600020016000915090505481565b60006020528060005260406000206000915090508060000154908060010154908060020154908060030154908060040154908060060160009054906101000a900473ffffffffffffffffffffffffffffffffffffffff16908060070160009054906101000a900473ffffffffffffffffffffffffffffffffffffffff16908060070160149054906101000a900460ff16905088565b600080600084815260200190815260200160002090508060070160149054906101000a900460ff16151561056c576040517f08c379a000000000000000000000000000000000000000000000000000000000815260040180806020018281038252600e8152602001807f426574206d75737420657869737400000000000000000000000000000000000081525060200191505060405180910390fd5b80600401543414151561060d576040517f08c379a000000000000000000000000000000000000000000000000000000000815260040180806020018281038252602d8152602001807f42657420616d6f756e74206d757374206d617463682077697468206f7468657281526020017f20706c617965722773206265740000000000000000000000000000000000000081525060400191505060405180910390fd5b60018160030154141515610689576040517f08c379a000000000000000000000000000000000000000000000000000000000815260040180806020018281038252601e8152602001807f426574206d75737420626520696e207374617465204245545f4144444544000081525060200191505060405180910390fd5b818160050160008360060160009054906101000a900473ffffffffffffffffffffffffffffffffffffffff1673ffffffffffffffffffffffffffffffffffffffff1673ffffffffffffffffffffffffffffffffffffffff168152602001908152602001600020600001541415151561078f576040517f08c379a00000000000000000000000000000000000000000000000000000000081526004018080602001828103825260278152602001807f53656c6563746564207465616d20616c72656164792074616b656e206279207081526020017f6c6179657220410000000000000000000000000000000000000000000000000081525060400191505060405180910390fd5b6107a634826004015461086790919063ffffffff16565b8160040181905550818160050160003373ffffffffffffffffffffffffffffffffffffffff1673ffffffffffffffffffffffffffffffffffffffff16815260200190815260200160002060000181905550338160070160006101000a81548173ffffffffffffffffffffffffffffffffffffffff021916908373ffffffffffffffffffffffffffffffffffffffff16021790555060028160030181905550505050565b60016020528060005260406000206000915090505481565b60035481565b6000818301905082811015151561087a57fe5b809050929150505600a165627a7a72305820715f913d0f889134e01e47a5ffbac5a39d97dc163fa192f508f1ea280be509510029",
  "source": "pragma solidity >=0.4.24;\n\nimport \"openzeppelin-solidity/contracts/math/SafeMath.sol\";\n\ncontract Betting {\n\n    // Prevent from arithmetic overflows, especially when dealing with Ether payments\n    using SafeMath for uint;\n\n    //codes for TeamSelected\n    uint256 constant HOME = 1;\n    uint256 constant AWAY = 2;\n    uint256 constant TIE = 3;\n\n    //matchStatus codes //TODO Implementation\n    uint256 constant MATCH_PLANNED = 0;\n    uint256 constant MATCH_STARTED = 1;\n    uint256 constant MATCH_ENDED = 2;\n    uint256 constant MATCH_CANCELLED = 3;\n\n    //betStatus Codes\n    uint256 constant BET_ADDED = 1;\n    uint256 constant BET_CONFIRMED = 2;\n\n    //Holds the teamSelected value of each Player\n    struct Player {\n        uint256 teamSelected; //Home = 1 or Away = 2\n        //uint amount;\n    }\n\n    //Structure for Bet\n    struct Bet {\n        // uint teamSelected; //Home = 1 or Away = 2\n        uint256 matchId;                            //The Id of each match, gets the ID from API, used for getting match status\n        uint256 betId;                              //Unique ID for each bet, used for referencing the bet\n        uint256 matchStatus;                        //TODO Current status of the match, refer matchStatus codes\n        //mapping(uint => Game) game;               //TODO (if needed)\n        uint256 betStatus;                          //Current status of each Bet, refer betStatus Codes\n        uint256 amount;                             //amount currently held in Bet\n        mapping(address => Player) player;          //Maps the address to each Player\n        address playerA;                            //Stores the address of PlayerA (used for distributing winnings)\n        address playerB;                            //Stores the address of PlayerB (used for distributing winnings)\n        bool active;                                // Required to distinguish between bets that is initialized with zeroes and null pointer\n    }\n\n    //TODO Structure for match (if needed)\n    /*\n    struct Game{\n        uint gameId;\n        uint gameStatus;\n        uint gameResult; //HOME or AWAY or TIE\n    }*/\n\n    mapping (uint256 => Bet) public bet;             //Maps the betId to each Bet\n    // Maps from a request id provided by chainlink to a bet id in order to identify bets from the match outcome\n    mapping (bytes32 => uint256) public oracleRequests;\n\n    // Store bet ids inside this array for iteration purposes\n    uint256[] public iterableBets;\n    uint256 public betCount; //TODO (if needed) auto calculate betID\n\n    function addBet(uint256 _betId, uint256 _teamSelected, uint256 _matchId) public payable {\n        //require(msg.value >= minimumBet);\n        //getMatchStatus(_matchId)                                  //TODO getting the current match status\n        //require(matchStatus == MATCH_PLANNED);                    //TODO verifies match status\n\n        Bet storage newBet = bet[_betId];\n        require(!newBet.active, \"BetId Already Exists\");    //the betID should be unique\n\n        newBet.betId = _betId;\n        newBet.matchId = _matchId;\n        newBet.playerA = msg.sender;\n        newBet.betStatus = 0;\n        newBet.amount = msg.value;\n        newBet.player[msg.sender].teamSelected = _teamSelected;\n        newBet.betStatus = BET_ADDED;                                //changes the status of bet from 0 to BET_ADDED\n        newBet.active = true;\n\n        betCount.add(1);\n        iterableBets.push(_betId);\n    }\n\n    function confirmBet(uint256 _betId, uint256 _teamSelected) public payable {\n        Bet storage b = bet[_betId];\n\n        require(b.active, \"Bet must exist\");                        //checks whether the bet already exists\n        require(\n            msg.value == b.amount,\n            \"Bet amount must match with other player's bet\"\n        ); //requires that the bet amount of playerB == bet amount of playerA\n        require(b.betStatus == BET_ADDED, \"Bet must be in state BET_ADDED\"); //verifies the bet status\n        //require(b.playerA != msg.sender);               //verifies playerA and playerB are different\n        require(\n            (b.player[b.playerA].teamSelected) != _teamSelected,\n            \"Selected team already taken by player A\"\n        ); //teamSelected should be different for playerA and playerB\n\n        b.amount = b.amount.add(msg.value); //amount of bet is doubled\n        b.player[msg.sender].teamSelected = _teamSelected;\n        b.playerB = msg.sender;\n        b.betStatus = BET_CONFIRMED;\n    }\n}\n",
  "sourcePath": "/home/igelarm/ponzi/app/contracts/Betting.sol",
  "compiler": {
    "name": "solc",
    "version": "0.4.24+commit.e67f0147.Emscripten.clang"
  },
  "schemaVersion": "3.2.0",
  "updatedAt": "2020-06-27T16:23:41.486Z",
  "devdoc": {
    "methods": {}
  },
  "userdoc": {
    "methods": {}
  }
}